:100000000C942A000C9447000C9447000C94470071
:100010000C9447000C9447000C9447000C94470044
:100020000C9447000C9447000C9447000C94470034
:100030000C9447000C9447000C9447000C94470024
:100040000C9447000C9447000C9447000C94470014
:100050000C94470011241FBECFE5D8E0DEBFCDBF12
:1000600010E0A0E6B0E0ECEAFDE002C005900D92E1
:10007000A836B107D9F720E0A8E6B0E001C01D928C
:10008000A137B207E1F70E94A6030C94D4060C94A2
:1000900000009C0183E083BF83E808C082BF98B75B
:1000A000916098BFA89508B600FEFDCF2150310998
:1000B000A8F713BE0895662311F0C09A01C0C09836
:1000C000C19882BB8FEF81BBC29A00000000000084
:1000D000C2980895C098C19A11BA90B3C29A00000C
:1000E0000000000011BA90B3C29899239CF30E94BB
:1000F0005B000895B89AB99ABA9A80E190E00E949C
:10010000490060E080E30E945B0085E090E00E948F
:10011000490060E080E30E945B0081E090E00E9483
:10012000490060E08CE30E946A0060E08CE00E947D
:100130006A0060E086E00E946A0060E081E00E9460
:100140006A00089560E081E00E946A000895CF93FC
:10015000C62F98E2899FC00D112460E082E00E94C2
:100160006A00CC2331F060E084E10E946A00C15053
:10017000D1F7CF910895CF93DF93EC012196FC0145
:100180008081882331F061E00E946A0089918111A9
:10019000FACFDF91CF910895CF9383B3803F79F168
:1001A000C3B384B3809584BB85B3809585BB88EC4D
:1001B00090E00E94490083B38C2B8E3E11F18E3D5E
:1001C00011F18E3B11F18D3E11F18D3D11F18D3B01
:1001D00011F18B3E11F18B3D11F18B3B11F1873DFC
:1001E00011F1873E11F1873B11F18E3711F18D37F7
:1001F00011F18B3711F1873711F188E521C08FEFAD
:100200001FC081E31DC082E31BC083E319C084E3E8
:1002100017C085E315C086E313C087E311C088E3E8
:100220000FC089E30DC080E30BC08AE209C083E2FE
:1002300007C081E405C082E403C083E401C084E414
:10024000CF91089580916E008A3279F410926A00FD
:10025000109269001092700010926F0010926C0062
:1002600010926B001092680046C0109268008133B3
:1002700001F520916B0030916C002115310539F4A6
:1002800021E030E030936C0020936B0056C0A90150
:10029000440F551F220F331F220F331F220F331F0E
:1002A000240F351F2F5F3F4F30936C0020936B005E
:1002B00044C0843301F520916B0030916C0021150E
:1002C000310539F424E030E030936C0020936B006A
:1002D0004EC0A901440F551F220F331F220F331F99
:1002E000220F331F240F351F2C5F3F4F30936C00BC
:1002F00020936B003CC0873301F520916B00309157
:100300006C002115310539F427E030E030936C00A2
:1003100020936B004EC0A901440F551F220F331FBD
:10032000220F331F220F331F240F351F295F3F4F2A
:1003300030936C0020936B003CC08033C1F420915B
:100340006B0030916C002115310509F454C0A901EE
:10035000440F551F220F331F220F331F220F331F4D
:10036000240F351F30936C0020936B0044C0823300
:1003700001F520916B0030916C002115310539F4A5
:1003800022E030E030936C0020936B0056C0A9014E
:10039000440F551F220F331F220F331F220F331F0D
:1003A000240F351F2E5F3F4F30936C0020936B005E
:1003B00044C0853301F520916B0030916C0021150C
:1003C000310539F425E030E030936C0020936B0068
:1003D00042C0A901440F551F220F331F220F331FA4
:1003E000220F331F240F351F2B5F3F4F30936C00BC
:1003F00020936B0030C0883301F520916B00309161
:100400006C002115310539F428E030E030936C00A0
:1004100020936B0042C0A901440F551F220F331FC8
:10042000220F331F220F331F240F351F285F3F4F2A
:1004300030936C0020936B0030C0833261F42091C4
:100440006B0030916C0030936A002093690091E05A
:100450009093680042C0833301F520916B00309186
:100460006C002115310539F423E030E030936C0045
:1004700020936B0052C0A901440F551F220F331F58
:10048000220F331F220F331F240F351F2D5F3F4FC5
:1004900030936C0020936B0040C08633F1F4809160
:1004A0006B0090916C00009739F486E090E0909397
:1004B0006C0080936B0008959C01220F331F880FFE
:1004C000991F880F991F880F991F820F931F0696F7
:1004D00090936C0080936B0008958933F1F48091C0
:1004E0006B0090916C00009739F489E090E0909354
:1004F0006C0080936B0008959C01220F331F880FBE
:10050000991F880F991F880F991F820F931F0996B3
:1005100090936C0080936B0008959FEB980F94303C
:1005200048F520916B0030916C003093700020935F
:100530006F0010926C0010926B00813421F49BE2EA
:1005400090936D000CC0823421F48DE280936D0095
:100550000BC0833421F48AE280936D0005C084349B
:1005600019F48FE280936D000E94A20084E690E06F
:100570000E944900089580916D008B3279F440917A
:100580006F00509170002091690030916A00240F33
:10059000351F30936C0020936B0027C08D3279F4A7
:1005A00080916F00909170002091690030916A00F5
:1005B000821B930B90936C0080936B0008958A329A
:1005C000A1F440916F00509170002091690030912A
:1005D0006A00429FC001439F900D529F900D1124CD
:1005E00090936C0080936B0008958F3271F480912A
:1005F0006F00909170006091690070916A000E9494
:10060000C20370936C0060936B000895EF92FF92A9
:100610000F931F93CF93DF93CDB7DEB760970FB6DD
:10062000F894DEBF0FBECDBF809170008F93809194
:100630006F008F930F2EF0E6EF2EF0E0FF2EF02DDF
:10064000FF92EF928E010F5F1F4F1F930F930E9437
:10065000EA0360E080E00E94A700C8010E94BB009E
:1006600080916D001F928F9383E690E09F938F930C
:100670001F930F930E94EA03C8010E94BB00809160
:100680006A008F93809169008F93FF92EF921F937E
:100690000F930E94EA03C8010E94BB000FB6F894B2
:1006A000DEBF0FBECDBF809168008823F1F086E6E3
:1006B00090E00E94BB0060E081E00E94A700809172
:1006C0006C008F9380916B008F93C7019F93EF9283
:1006D0001F930F930E94EA03C8010E94BB000F9072
:1006E0000F900F900F900F900F9080916B00909152
:1006F0006C00892BF1F060E081E00E94A7008091FE
:100700006C008F9380916B008F9380E690E09F93B5
:100710008F938E010F5F1F4F1F930F930E94EA0369
:10072000C8010E94BB000F900F900F900F900F9088
:100730000F9060960FB6F894DEBF0FBECDBFDF916D
:10074000CF911F910F91FF90EF9008950E947A0032
:100750008FE084BB80EF85BB0E94CC0080936E004D
:100760008A3211F40E94A20080916E00883511F047
:100770000E9422018091680081110E94BB020E94A8
:100780000603EACF97FB072E16F4009407D077FDF7
:1007900009D00E94D60307FC05D03EF490958195C0
:1007A0009F4F0895709561957F4F0895AA1BBB1BBD
:1007B00051E107C0AA1FBB1FA617B70710F0A61B61
:1007C000B70B881F991F5A95A9F780959095BC0182
:1007D000CD010895AEE0B0E0E0EFF3E00C94AB069D
:1007E0000D891E8986E08C831A8309838FEF9FE72A
:1007F0009E838D83AE01475E5F4F6F89788DCE01FA
:1008000001960E940C04EF81F885E00FF11F108221
:100810002E96E4E00C94C706ABE0B0E0E2E1F4E031
:100820000C949D066C017B018A01FC0117821682E3
:10083000838181FFCCC1CE0101963C01F6019381F9
:10084000F70193FD859193FF81917F01882309F43E
:10085000BAC1853239F493FD859193FF81917F016F
:10086000853229F4B60190E00E940306E7CF912C6F
:10087000212C312CFFE1F315D8F08B3279F038F4CC
:10088000803279F08332A1F4232D20611DC08D3296
:1008900061F0803369F4232D216016C0832D8260BE
:1008A000382EE32DE4603E2E2AC0F32DF8601DC0E3
:1008B00037FC2DC020ED280F2A3040F08E32B9F4DD
:1008C00036FC81C1232D2064322E19C036FE06C0AD
:1008D0008AE0989E200D1124922E11C0EAE02E9EEF
:1008E000200D1124222EF32DF0623F2E08C08C36ED
:1008F00021F4832D8068382E02C0883641F4F70138
:1009000093FD859193FF81917F018111B3CF982F42
:100910009F7D9554933028F40C5F1F4F9FE399837C
:100920000DC0833631F0833771F0833509F059C03B
:1009300021C0F801808189830E5F1F4F8824839432
:10094000912C530113C02801F2E04F0E511CF80105
:10095000A080B18036FE03C0692D70E002C06FEF49
:100960007FEFC5010E94F8054C018201F32DFF774E
:100970003F2E16C0280122E0420E511CF801A08033
:10098000B18036FE03C0692D70E002C06FEF7FEFCB
:10099000C5010E94ED054C01F32DF0683F2E820148
:1009A00033FC1BC0822D90E088169906B0F4B60186
:1009B00080E290E00E9403062A94F4CFF50137FC10
:1009C000859137FE81915F01B60190E00E94030698
:1009D00021102A9421E0821A91088114910471F760
:1009E000E8C0843611F0893641F5F80137FE07C0BA
:1009F00060817181828193810C5F1F4F08C060818B
:100A00007181072E000C880B990B0E5F1F4FF32D81
:100A1000FF763F2E97FF09C0909580957095619560
:100A20007F4F8F4F9F4FF0683F2E2AE030E0A301A9
:100A30000E943F06882E861845C0853731F4232D45
:100A40002F7EB22E2AE030E025C0932D997FB92E5B
:100A50008F36C1F018F4883579F0B5C0803719F0B9
:100A6000883721F0B0C0E92FE061BE2EB4FE0DC082
:100A7000FB2DF460BF2E09C034FE0AC0292F26606A
:100A8000B22E06C028E030E005C020E130E002C010
:100A900020E132E0F801B7FE07C0608171818281F8
:100AA00093810C5F1F4F06C06081718180E090E0F0
:100AB0000E5F1F4FA3010E943F06882E8618FB2D54
:100AC000FF773F2E36FE0DC0232D2E7FA22E8914D8
:100AD00058F434FE0BC032FC09C0832D8E7EA82E44
:100AE00005C0B82CA32C03C0B82C01C0B92CA4FE9F
:100AF0000FC0FE01E80DF11D8081803321F49A2D95
:100B0000997EA92E09C0A2FE06C0B394B39404C076
:100B10008A2D867809F0B394A3FC11C0A0FE06C00C
:100B2000B21488F4280C922C9B180EC0B21460F4F6
:100B3000B60180E290E00E940306B394F7CFB214AE
:100B400018F42B1802C0982C212CA4FE10C0B6015A
:100B500080E390E00E940306A2FE17C0A1FC03C040
:100B600088E790E002C088E590E0B6010CC08A2DCD
:100B7000867859F0A1FE02C08BE201C080E2A7FC9A
:100B80008DE2B60190E00E940306891438F4B601A4
:100B900080E390E00E9403069A94F7CF8A94F301D1
:100BA000E80DF11D8081B60190E00E9403068110DE
:100BB000F5CF222009F442CEB60180E290E00E94F7
:100BC00003062A94F6CFF6018681978102C08FEF43
:100BD0009FEF2B96E2E10C94B906FC010590615061
:100BE00070400110D8F7809590958E0F9F1F089543
:100BF000FC016150704001900110D8F780959095EC
:100C00008E0F9F1F08950F931F93CF93DF93FB01C8
:100C1000238121FD03C08FEF9FEF2CC022FF16C060
:100C200046815781248135814217530744F4A081BE
:100C3000B1819D012F5F3F4F318320838C932681AB
:100C400037812F5F3F4F3783268314C08B01EC0120
:100C5000FB010084F185E02D0995892BE1F6D8018F
:100C600016968D919C911797019617969C938E934B
:100C70001697CE01DF91CF911F910F910895FA0140
:100C8000AA27283051F1203181F1E8946F936E7FCB
:100C90006E5F7F4F8F4F9F4FAF4FB1E03ED0B4E0BC
:100CA0003CD0670F781F891F9A1FA11D680F791FFD
:100CB0008A1F911DA11D6A0F711D811D911DA11D0E
:100CC00020D009F468943F912AE0269F112430191E
:100CD000305D3193DEF6CF010895462F4770405DB9
:100CE0004193B3E00FD0C9F7F6CF462F4F70405D68
:100CF0004A3318F0495D31FD4052419302D0A9F7C3
:100D0000EACFB4E0A6959795879577956795BA95BC
:100D1000C9F700976105710508959B01AC010A2E82
:100D200006945795479537952795BA95C9F7620F59
:100D3000731F841F951FA01D08952F923F924F92FD
:100D40005F926F927F928F929F92AF92BF92CF925B
:100D5000DF92EF92FF920F931F93CF93DF93CDB764
:100D6000DEB7CA1BDB0B0FB6F894DEBF0FBECDBFDC
:100D700009942A88398848885F846E847D848C84AD
:100D80009B84AA84B984C884DF80EE80FD800C81B6
:100D90001B81AA81B981CE0FD11D0FB6F894DEBF99
:0C0DA0000FBECDBFED010895F894FFCF09
:080DAC002564002563003D00F1
:00000001FF
